:020000040000FA
:040000001DEF00F000
:020004000000FA
:0200080008D01E
:0200180002D014
:06001A0000001100D8CF28
:1000200061F0E8CF60F0E0CF62F0000062C0E0FF76
:1000300060C0E8FF61C0D8FF1000806A0F0EC16E7B
:10004000070EB46E000E926E936E946E956E966E61
:100050006D966F86FF0E896E8A6E8B6E8C6E8D6EBE
:10006000FF0E896E8A6E8B6E8C6E8D6E300ED31283
:100070000000000045EC00F045EC00F08C6A45EC17
:1000800000F0FF0E8C6E3CEF00F0640E016E210E4E
:10009000026ECE0E036E032E4BEF00F0022E49EFE0
:0A00A00000F0012E47EF00F01200FF
:020000040030CA
:010000001AE5
:010001000AF4
:0200000400F00A
:1000000054657374204461746100010203040500A7
:00000001FF
